:020000040800F2
:1000000000000824490800084507000847070008C1
:10001000490700084B0700084D07000800000000D2
:100020000000000000000000000000004F07000872
:10003000510700080000000053070008550700089A
:10004000990800089908000899080008990800080C
:1000500099080008990800089908000899080008FC
:100060009908000899080008990800085D07000829
:1000700099080008990800089908000899080008DC
:1000800099080008990800089908000899080008CC
:1000900099080008990800089908000899080008BC
:1000A00099080008990800089908000899080008AC
:1000B000990800089908000899080008990800089C
:1000C000990800089908000899080008990800088C
:1000D000990800089908000899080008990800087C
:1000E0009908000899080008000000009908000815
:1000F000990800089908000899080008990800085C
:10010000990800089908000899080008990800084B
:10011000990800089908000899080008990800083B
:10012000990800089908000899080008990800082B
:10013000990800089908000899080008990800081B
:1001400000000000000000000000000000000000AF
:1001500099080008990800089908000899080008FB
:1001600099080008990800089908000899080008EB
:100170009908000899080008990800080000000084
:1001800099080008990800089908000899080008CB
:1001900099080008990800089908000899080008BB
:1001A00099080008990800089908000899080008AB
:1001B000990800089908000899080008990800089B
:1001C000990800089908000899080008990800088B
:1001D000990800086D0700089908000899080008A8
:1001E000990800089908000899080008990800086B
:1001F000990800089908000899080008990800085B
:10020000990800089908000899080008990800084A
:10021000990800089908000899080008990800083A
:1002200099080008990800089908000800000000D3
:1002300099080008990800080000000099080008C3
:10024000990800089908000899080008990800080A
:1002500099080008990800089908000899080008FA
:1002600099080008990800089908000899080008EA
:100270009908000899080008990800080000000083
:100280009908000899080008990800080000000073
:080290000000000099080008BD
:1002980053B94AB9002908BF00281CBF4FF0FF31E5
:1002A8004FF0FF3000F00CB8ADF1080C6DE904CE4A
:1002B80006F0E4FCDDF804E0DDE9022304B0704751
:1002C800704700BF0348044B834202D0034B03B17D
:1002D8001847704720010024200100240000000076
:1002E800054806490B1AD90F01EBA301491002D0A2
:1002F800034B03B118477047200100242001002454
:100308000000000010B5064C237843B9FFF7DAFF68
:10031800044B13B10448AFF300800123237010BDD0
:1003280020010024000000004070000808B5054BBB
:100338001BB105490548AFF30080BDE80840FFF749
:10034800CFBF00BF00000000240100244070000857
:1003580010B584B00024009401940294039400F032
:1003680085FB01238DF800308DF8014001941F2290
:100378008DF8082087228DF809208DF80A408DF81D
:100388000B408DF80C308DF80D308DF80E408DF83F
:100398000F40684600F088FB042000F075FB04B0AD
:1003A80010BD000070B58AB0002405940694079427
:1003B800089409942F4BD3F8E02042F01002C3F8B8
:1003C800E020D3F8E02002F010020092009AD3F85F
:1003D800E02042F08002C3F8E020D3F8E02002F0E9
:1003E80080020192019AD3F8E02042F00102C3F89A
:1003F800E020D3F8E02002F001020292029AD3F83A
:10040800E02042F00402C3F8E020D3F8E02002F034
:1004180004020392039AD3F8E02042F00202C3F8E0
:10042800E020D3F8E03003F002030493049B124E5B
:1004380001220221304601F026FB08230593069489
:100448000125079505A90D4801F006FA0223059331
:1004580006950794089405A9304601F0FDF9202374
:1004680005930694079505A9054801F0F5F90AB022
:1004780070BD00BF00440258000002580010025826
:100488000008025800B583B00B4BD3F8D82042F0CF
:100498000102C3F8D820D3F8D83003F00103019340
:1004A800019B002211460B2000F088FA0B2000F077
:1004B800BBFA03B05DF804FB0044025872B6FEE7CD
:1004C80008B51548154B03604FF4E133436000232A
:1004D8008360C36003610C2242618361C36103626C
:1004E8004362836204F00FFC70B900210A4804F0EB
:1004F80082FC58B90021084804F0A2FC40B906481B
:1005080004F05AFC30B908BDFFF7D8FFFFF7D6FF53
:10051800FFF7D4FFFFF7D2FFB40100240010014019
:1005280000B59DB04C22002109A806F033FD202219
:10053800002101A806F02EFD022002F035F9002363
:100548000093254BDA6A22F00102DA62DB6A03F0D3
:1005580001030093214B9A6942F440429A619B69D6
:1005680003F440430093009B1C4B9B6913F4005F0A
:10057800FAD0012309934FF480330A93022312938C
:1005880013931493402215921693102317931893DC
:100598000C23199300231A931B9309A802F036F928
:1005A800B0B93F2301930323029300230393082345
:1005B80004934023059306934FF4806207920893AF
:1005C800022101A802F076FD20B91DB05DF804FBF8
:1005D800FFF774FFFFF772FF000400580048025845
:1005E80000B583B0FFF7B4FE00F07CF9FFF798FF81
:1005F800FFF7D8FEFFF746FFFFF762FF06F016F990
:100608000C4B01930AE0002202210B4801F03BFA4F
:1006180004220DEB0201094805F014FB08210848E3
:1006280001F02AFA0028EED001220221024801F046
:100638002AFAF3E700F6F6000000025850020024F8
:100648000010025882B0074BD3F8F42042F002029F
:10065800C3F8F420D3F8F43003F002030193019BAC
:1006680002B070470044025830B5B9B004460021C2
:1006780033913491359136913791C02202A806F012
:1006880089FC2268284B9A4201D039B030BD01223A
:100698000023CDE9022302A802F0A8FF00283DD1DB
:1006A800224BD3F8F02042F01002C3F8F020D3F820
:1006B800F02002F010020092009AD3F8E02042F0F5
:1006C8000202C3F8E020D3F8E03003F002030193FC
:1006D800019B4FF44043339302233493002535950F
:1006E80036950423379333A9114801F0B5F811481A
:1006F800114B0360292343608560C5604FF4806314
:10070800036145618561C5610562456200F036FB9C
:1007180038B9084BC4F880309C63B6E7FFF7CEFEC3
:10072800BEE7FFF7CBFEF4E7001001400044025893
:10073800000402583C01002410000240FEE7FEE7D6
:10074800FEE7FEE7FEE770477047704708B500F020
:10075800F7F808BD08B5024800F0E2FC08BD00BF84
:100768003C01002408B5024801F0DBFC08BD00BFCD
:100778002C070024274AD2F8883043F47003C2F8C3
:100788008830254B1B6803F00F03062B06D8224A36
:10079800136823F00F0343F0070313601F4B1A6815
:1007A80042F001021A6000221A6119681C4A0A40C4
:1007B8001A60194B1B6813F0080F06D0164A136805
:1007C80023F00F0343F007031360144B00229A61D0
:1007D800DA611A62134999621349D9621349196394
:1007E8005A639963DA6319645A64196821F4802199
:1007F80019601A660E4B1A680E4B1340B3F1005F6E
:1008080003D20D4B0122C3F808210C4B43F2D2024C
:100818001A60704700ED00E00020005200440258C2
:100828007FEDF6EA000202020000FF0180020101EA
:100838000010005C0000FFFF0080005100400052E3
:10084800DFF834D0FFF796FF0C480D490D4A002316
:1008580002E0D458C4500433C4188C42F9D30A4A6D
:100868000A4C002301E013600432A242FBD306F0D5
:100878006DFBFFF7B5FE7047000008240000002458
:1008880020010024F0700008200100244C0C0024F2
:10089800FEE70000104B1B780BB90120704710B51C
:1008A80004464FF47A70B0FBF3F30C4A1068B0FBBF
:1008B800F3F000F0C7F868B90F2C01D901200AE05D
:1008C800002221464FF0FF3000F078F8044B1C60FE
:1008D800002000E0012010BD0800002400000024D2
:1008E8000C00002410B5032000F056F802F0E8FAD6
:1008F8000F498B69C3F303230E4AD35C03F01F032C
:10090800D8408B6903F00F03D35C03F01F0320FA70
:1009180003F3094A1360094B18600F20FFF7BAFF69
:1009280010B10124204610BD0446FFF78BFEF9E7FD
:1009380000440258587000080400002400000024F5
:10094800034B1B78034A11680B441360704700BFC0
:100958000800002448020024014B1868704700BFB3
:100968004802002438B50446FFF7F6FF0546B4F1FF
:10097800FF3F02D0044B1B781C44FFF7EDFF401BE0
:10098800A042FAD338BD00BF08000024014B186804
:10099800000C70470010005C0649CB6823F4E06344
:1009A8001B041B0C000200F4E0600343024A1A43D4
:1009B800CA60704700ED00E00000FA0500B5174B6B
:1009C800DB68C3F30223C3F1070CBCF1040F28BF93
:1009D8004FF0040C03F1040EBEF1060F14D9033BCB
:1009E8004FF0FF3E0EFA0CFC21EA0C0199400EFA7A
:1009F80003F322EA03031943002807DB0901C9B2FC
:100A0800074B19545DF804FB0023E9E700F00F00D9
:100A18000901C9B2034B1954F4E700BF00ED00E027
:100A280000E400E014ED00E0002807DB00F01F02FE
:100A3800400901239340024A42F82030704700BF22
:100A480000E100E00138B0F1807F0BD24FF0E023E5
:100A58005861054AF02182F8231000209861072286
:100A68001A6170470120704700ED00E0BFF35F8F07
:100A7800044B5A6A22F480325A620022C3F8942046
:100A8800704700BF00ED00E040F00100054BC3F8DF
:100A980094005A6A42F480325A62BFF34F8FBFF310
:100AA8006F8F704700ED00E04278164BC3F898202E
:100AB8000378FBB14368134AC2F89C30017BC37AC0
:100AC8001B0643EA0173817A43EAC143417B43EA47
:100AD8008143817B43EA4143C17B43EA0143417A35
:100AE80043EA0123017A43EA410301780B43C2F840
:100AF800A0307047034B0022C3F89C20C3F8A02005
:100B0800704700BF00ED00E003682749274A934279
:100B180018BF8B422FD0183293422CD018329342F0
:100B280029D01832934226D01832934223D0183253
:100B3800934220D0183293421DD002F55672934248
:100B480019D01832934216D01832934213D0183263
:100B5800934210D0183293420DD0183293420AD0E3
:100B68001832934207D01832934204D023F0FF037F
:100B78008365806D704710B4D9B210390C4AA2FB56
:100B88000142C2F302120B4CA25CC2655F2907D96D
:100B9800094A1A4004328265806D5DF8044B70473B
:100BA800054A1A408265F7E7100002402800024013
:100BB800ABAAAAAA6870000800FCFFFF83699BB96A
:100BC800836A012B0AD0022B02D00BB10020704798
:100BD800C36A13F0807F2AD100207047C36AB3F13B
:100BE800C07F26D000207047B3F5005F0AD0836A23
:100BF800022B26D9032B26D1C36A13F0807F24D178
:100C080000207047836A032B03D8DFE803F014043D
:100C1800140A00207047C36A13F0807F0DD10020AA
:100C28007047C36AB3F1C07F09D000207047012024
:100C3800704701207047012070470120704701204C
:100C4800704701207047002070470120704700005E
:100C580003682249224A934218BF8B4228D0143293
:100C6800934225D01432934222D0143293421FD09B
:100C7800143293421CD01432934219D01432934246
:100C880016D0DAB2103A1749A1FB02121209164916
:100C98001944A8291FD9154B13449B000366144B0C
:100CA800436602F01F02012303FA02F282667047CC
:100CB800DBB2083B0F4AA2FB03230F4A02EB1312D5
:100CC800920002660D4A4266C3F30413012202FA37
:100CD80003F3836670470832DDE700BF0854025803
:100CE8001C540258ABAAAAAAF0FBFDBF0082001050
:100CF80080080240CDCCCCCC009600168058025813
:100D080001794A1E072A2CD830B40368154D164CB1
:100D1800A34218BFAB4218D01434A34215D01434E0
:100D2800A34212D01434A3420FD01434A3420CD0DF
:100D38001434A34209D01434A34206D00B4B0B44FD
:100D48009B00C3660A4B036705E00A4B0B449B00F4
:100D5800C366094B0367012303FA02F2426730BCFA
:100D680070477047085402581C5402583F820010BC
:100D7800400902403F9600164059025870B5044693
:100D8800FFF7EAFD002C00F0B681054623685349B9
:100D9800534A934218BF8B420CBF0122002250D005
:100DA80030318B424DD018318B424AD018318B42AA
:100DB80047D018318B4244D018318B4241D018317A
:100DC8008B423ED001F556718B423AD018318B4296
:100DD80037D018318B4234D018318B4231D018318A
:100DE8008B422ED018318B422BD018318B4228D011
:100DF80018318B4225D03B493B4A934218BF8B425E
:100E080000F03181394A934200F02D811432934227
:100E180000F029811432934200F025811432934264
:100E280000F021811432934200F01D811432934264
:100E380000F0198140236365032384F835300120CD
:100E48004AE0022184F83510002184F834107ABB76
:100E5800274A93422CD01832934229D01832934211
:100E680026D01832934223D01832934220D0183219
:100E780093421DD002F55672934219D0183293420C
:100E880016D01832934213D01832934210D0183229
:100E980093420DD0183293420AD01832934207D0A9
:100EA8001832934204D01A6822F001021A6003E053
:100EB8001A6822F001021A6023681A6812F0010FFA
:100EC80018D0FFF749FD431B052BF5D9202363658F
:100ED800032384F83530012070BD00BF10000240A4
:100EE80028000240085402581C5402583054025832
:100EF800400002401A6881481040A168E2680A432D
:100F080021690A4361690A43A1690A43E1690A43FD
:100F1800216A0A430243616A042900F099807849EA
:100F2800086878490140B1F1005F11D36168A1F107
:100F38002905A1F13F00032888BF052D06D9A1F195
:100F48004700012802D94F39032901D842F48012F9
:100F58001A602668756925F00705636A1D43042B26
:100F680008D1A36A1D43E36A23B12046FFF726FE92
:100F7800002872D175612046FFF7C6FDE36D03F0C6
:100F88001F023F239340836023685F495F4A93426F
:100F980018BF8B4242D0183293423FD01832934246
:100FA8003CD01832934239D01832934236D0183296
:100FB800934233D01832934230D002F5567293429E
:100FC8002CD01832934229D01832934226D01832A6
:100FD800934223D01832934220D0183293421DD026
:100FE800183293421AD01832934217D0484A934283
:100FF80014D01432934211D0143293420ED01432CA
:1010080093420BD01432934208D01432934205D045
:101018001432934202D01432934213D12046FFF780
:1010280017FEA368802B59D0236E22791A60636E4D
:10103800A26E5A606368013B072B52D90023E3660E
:101048002367636700206065012384F8353043E730
:10105800E16A206B01430A4361E74023636501208D
:1010680084F8350038E7022284F83520002284F815
:1010780034201A6827491140A268402A2CD0802AB7
:1010880027D00022E06842EAD002206942EAD00272
:10109800606942EAD002A06942EAD002E06942EA05
:1010A800D002206A42EA10120A431A6022681A4BD8
:1010B80013441A4AA2FB03231B099B00E36520463D
:1010C800FFF722FDE26D02F01F0101228A40426013
:1010D8005AE74FF48042D5E71022D3E70023636034
:1010E800A2E72046FFF70CFEE36E00221A60236F8A
:1010F800626F5A60A6E70120EEE600BF3F8010FE4F
:101108000010005C0000FFFF1000024028000240B1
:10111800085402580F00FEFFF8ABFDA7CDCCCCCC8D
:10112800F0B583B00446002301937D4B1D687D4BC9
:10113800A3FB0535AD0A876D3E68D7F800C0036884
:1011480079497A48834218BF8B420CBF012000209E
:1011580061D0774A93425ED0183293425BD01832FE
:10116800934258D01832934255D01832934252D0F5
:10117800183293424FD002F5567293424BD0183230
:10118800934248D01832934245D01832934242D005
:10119800183293423FD0183293423CD018329342CF
:1011A80039D01832934236D06249634A934218BF05
:1011B8008B4212D0614A93420FD0143293420CD022
:1011C8001432934209D01432934206D01432934217
:1011D80003D01432934240F061821A68E16D01F045
:1011E8001F010420884010EA0C0F00F0A78212F0BB
:1011F800040F00F0A382786012F4004F00F05A82C6
:1012080012F4803F40F05082A36C002B00F046821D
:101218002046984742E2E26D02F01F0108228A4008
:10122800324241D070BB424A93422BD0183293428B
:1012380028D01832934225D01832934222D018323F
:1012480093421FD0183293421CD002F55672934233
:1012580018D01832934215D01832934212D018324F
:1012680093420FD0183293420CD01832934209D0CF
:101278001832934206D01832934203D01A68C2F348
:10128800C00202E01A68C2F380026AB11A6822F04A
:1012980004021A60E36D03F01F0208239340BB6049
:1012A800636D43F001036365E26D02F01F0226FAE5
:1012B80002F313F0010F47D023681B481B498B42E8
:1012C80018BF83423CD018318B4239D018318B4239
:1012D80036D018318B4233D018318B4230D0183188
:1012E8008B422DD018318B422AD001F556718B4292
:1012F80026D018318B4223D018318B4220D0183198
:101308008B421DD018318B421AD018318B4217D01E
:1013180018318B4214D018318B4211D01B6813E05E
:1013280000000024B5814E1B100002402800024036
:1013380040000240085402581C54025830540258C5
:101348005B6913F0800F3BD1E36D03F01F030422A8
:1013580002FA03F3334240D02268964896498A42FB
:1013680018BF824235D018318A4232D018318A42A9
:101378002FD018318A422CD018318A4229D01831FE
:101388008A4226D018318A4223D001F556718A4202
:101398001FD018318A421CD018318A4219D018310E
:1013A8008A4216D018318A4213D018318A4210D096
:1013B80018318A420DD018318A420AD013680CE0DD
:1013C800012303FA02F2BA60636D43F00203636516
:1013D800BAE7126812F0020F3DD1E36D03F01F0364
:1013E800102202FA03F333425FD02268714872492F
:1013F8008A4218BF824234D018318A4231D018311B
:101408008A422ED018318A422BD018318A4228D0ED
:1014180018318A4225D018318A4222D001F55671F6
:101428008A421ED018318A421BD018318A4218D0FD
:1014380018318A4215D018318A4212D018318A429E
:101448000FD018318A420CD018318A4209D012685C
:10145800C2F3800208E0BB60636D43F00403636578
:10146800BBE71268C2F3C002FAB1BB6023681A680E
:1014780012F4802F0DD01B6813F4002F04D1236CB5
:101488009BB12046984710E0A36C73B1204698475B
:101498000BE01A6812F4807F03D11A6822F0080260
:1014A8001A60236C0BB120469847E36D03F01F03C5
:1014B800202202FA03F3334200F0928022683D486A
:1014C8003D498A4218BF82422ED018318A422BD019
:1014D80018318A4228D018318A4225D018318A42D8
:1014E80022D018318A421FD018318A421CD001F507
:1014F80056718A4218D018318A4215D018318A425A
:1015080012D018318A420FD018318A420CD01831C3
:101518008A4209D018318A4206D018318A4203D04B
:101528001268C2F3400202E01268C2F30012002AF5
:1015380056D0BB6094F83530DBB2042B0ED023684C
:101548001A6812F4802F39D01B6813F4002F2CD19D
:10155800636C002B44D02046984741E0226813680A
:1015680023F0160313602268536923F08003536144
:10157800236CB3B12268136823F008031360E36D8A
:1015880003F01F023F239340BB60012384F83530EA
:10159800002384F83430236D002B7FD020469847F1
:1015A8007CE0A36C002BE5D1E9E7E36BC3B12046EF
:1015B800984715E010000240280002401A6812F40B
:1015C800807F09D11A6822F010021A60012384F87A
:1015D8003530002384F83430E36B0BB1204698474C
:1015E800636D002B5AD0636D13F0010F52D00423A2
:1015F80084F8353023689649964A934218BF8B423F
:101608002FD0183293422CD01832934229D0183256
:10161800934226D01832934223D01832934220D0D6
:10162800183293421DD002F55672934219D01832DF
:10163800934216D01832934213D01832934210D0E6
:10164800183293420DD0183293420AD0183293427E
:1016580007D01832934204D01A6822F001021A60A7
:1016680003E01A6822F001021A60019B013301931A
:10167800AB4204D823681B6813F0010FF5D1236827
:101688001B6813F0010F0BD0032384F835300023B7
:1016980084F83430E36C0BB12046984703B0F0BDB2
:1016A800012384F83530F2E7236C002BF6D020466E
:1016B8009847F3E712F0200F3AD123686449654A46
:1016C800934218BF8B422FD0183293422CD0183235
:1016D800934229D01832934226D01832934223D00D
:1016E8001832934220D0183293421DD002F5567218
:1016F800934219D01832934216D01832934213D01D
:101708001832934210D0183293420DD018329342B7
:101718000AD01832934207D01832934204D01A687C
:1017280022F004021A6003E01A6822F008021A6024
:10173800236C002BB2D020469847AFE702208840A0
:1017480010EA0C0F60D012F0020F5DD0786012F42E
:10175800004F0ED012F4803F05D1636C002B9DD052
:10176800204698479AE7E36B002B97D02046984786
:1017780094E712F0200F40D123683549354A934247
:1017880018BF8B422FD0183293422CD01832934274
:1017980029D01832934226D01832934223D01832D7
:1017A800934220D0183293421DD002F556729342CC
:1017B80019D01832934216D01832934213D01832E7
:1017C800934210D0183293420DD0183293420AD067
:1017D8001832934207D01832934204D01A6822F084
:1017E8000A021A6003E01A6822F014021A60012340
:1017F80084F83530002384F83430E36B002B3FF451
:101808004DAF2046984749E7082000FA01F111EA50
:101818000C0F3FF443AF12F0080F3FF43FAF1A68C4
:1018280022F00E021A60E36D03F01F03012202FA90
:1018380003F37B60626584F83520002384F8343034
:10184800E36C002B3FF42AAF2046984726E700BFF9
:101858001000024028000240F0B583B000236BE07E
:1018680085685E000324B44025EA0405CC68B440CA
:101878002C438460446824EA0C0C4C68C4F30014BC
:101888009C4044EA0C04446068E0DD08083550F8E0
:10189800256003F007044FEA840C0F2404FA0CF4C3
:1018A80026EA040E0C6904FA0CF444EA0E0440F823
:1018B80025406BE0092400E0002404FA0EF42C43D0
:1018C8000CF1020C694D45F82C404FF0B0442568E6
:1018D800D44325EA02064F6817F4801F01D042EA74
:1018E80005064FF0B0452E606D6804EA05064F689E
:1018F80017F4001F01D042EA05064FF0B0456E60AC
:10190800D5F8845004EA05064F6817F4003F01D063
:1019180042EA05064FF0B045C5F88460D5F8805016
:101928002C404E6816F4803F01D042EA05044FF07F
:10193800B042C2F8804001330A6832FA03F400F07A
:1019480092804FF0010C0CFA03FC1CEA0202F2D060
:101958004C6804F00304013C012C81D94C6804F064
:101968000304032C0CD0C4685D004FF0030C0CFA80
:1019780005FC24EA0C0C8C68AC4044EA0C04C460F6
:101988004C6804F00304022C3FF47FAF04684FEA6C
:10199800430E4FF0030C0CFA0EFC24EA0C0C4C68B6
:1019A80004F0030404FA0EF444EA0C0404604C68DE
:1019B80014F4403FBFD02E4CD4F8F45045F0020543
:1019C800C4F8F450D4F8F44004F002040194019CE3
:1019D8004FEA930C0CF10205244C54F8255003F0FF
:1019E80003044FEA840E0F2404FA0EF425EA0405D2
:1019F800204CA0423FF460AF04F58064A04222D09E
:101A080004F58064A04220D004F58064A0421ED072
:101A180004F58064A0421CD004F58064A0421AD06A
:101A280004F58064A04218D004F58064A04216D062
:101A380004F58064A04214D004F58064A0423FF409
:101A480039AF0A2439E7012437E7022435E70324AC
:101A580033E7042431E705242FE706242DE707247C
:101A68002BE7082429E703B0F0BD00BF00040058A5
:101A780000440258000002580369194201D00120AD
:101A88007047002070470AB181617047090481617D
:101A980070472DE9F04383B0D0F8008001EBC10313
:101AA80000EB83031A6DDB6C9A4254D807460C4648
:101AB8009B1A01EBC10200EB8202526C9A4200D3DE
:101AC8001A4602F103094FEA990915E006F10309DC
:101AD8004FEA990904EBC40507EB8505A96C3B7B24
:101AE8000093B3B2E2B2404603F00BFDAB6C334453
:101AF800AB642B6D33442B6508EB441303F510637B
:101B08009B699BB24B4512D304EBC40207EB8202DC
:101B1800116DD36C99420AD24BB15B1A04EBC40223
:101B280007EB8202566C9E42D0D31E46CEE704EBEA
:101B3800C40007EB8007FA6C3B6D9A420FD804F09B
:101B48000F040123A340D8F8344824EA0304C8F852
:101B58003448002000E0012003B0BDE8F0830020F5
:101B6800FAE770B58AB0002800F097800546046847
:101B780090F8BD343BB3032385F8BD34E36B13F40D
:101B8800807F01D10023EB60286803F06DFA2C46B2
:101B980054F8106BEC460FCCACE80F000FCCACE857
:101BA8000F0094E803008CE803002B1D0ECB304691
:101BB80003F094F9044658B1022385F8BD34012492
:101BC80020460AB070BD80F8BC3404F0EBFED2E7C2
:101BD8000021286803F0B0FE234616E003EBC30299
:101BE80005EB8202012182F83D1082F83C30A2F810
:101BF8005630002182F840105164916403EBC3020F
:101C080005EB8202D1640133DBB269688B42E5D30C
:101C180016E004EBC40305EB8303002283F87D225E
:101C280083F87C4283F88022C3F88422C3F8882290
:101C380004EBC40305EB8303C3F88C220134E4B23C
:101C4800A142E6D82C4654F8106BEC460FCCACE811
:101C58000F000FCCACE80F0094E803008CE80300F9
:101C68002B1D0ECB304603F05BFA044660B9002307
:101C780085F83830012385F8BD346B6A012B08D00C
:101C8800286803F016FE9BE7022385F8BD3401247B
:101C980096E7284600F072FDF2E7012490E7036812
:101CA80090F8BC24012A1AD010B50446012280F805
:101CB800BC24DA6B12F4807F02D1826A012A09D02F
:101CC800206803F0CBF9206803F0E5FD002084F8D4
:101CD800BC0410BD9A6B42F480329A63F0E702208C
:101CE8007047000070B504460D460068066C00EBAE
:101CF800411303F530639A68E168012911D0384926
:101D08008E4256D03DB905EBC50304EB8303D3F8E7
:101D18008C32002B5ED0E9B2204604F0A5FE0020EC
:101D280070BD12F0080F09D02E498E42F7D912F46F
:101D3800004FF4D04FF400429A60F0E712F0200F01
:101D480002D020229A60EAE712F0280FE7D125494D
:101D58008E4206D912F4004F03D04FF400429A6025
:101D6800DDE705EBC50204EB8202D2F89C121B6981
:101D7800C3F31203CB1AC2F890327DB905EBC50242
:101D880004EB8202D2F88C226AB105EBC50204EB9F
:101D98008202D2F888120B44C2F88832E9B220468F
:101DA80004F062FEBBE704F2C442012103F006FE20
:101DB800F4E712F4004F03D04FF400429A60AEE704
:101DC80012F0200F01D020229A60E9B2204604F0D8
:101DD8004BFEA4E704F2C442002103F0EFFD9AE7AA
:101DE8000A31544F0A30544F38B5044603681D6C05
:101DF80003EB4113D3F8081B0E4A954207D903F5A4
:101E0800306311F4004F02D04FF400429A6020462C
:101E180004F022FE074B9D4202D9E368012B01D052
:101E2800002038BD04F2C4420121206803F0C6FD39
:101E3800F6E700BF0A30544F90F8BC34012B0DD0A0
:101E480010B50446012380F8BC3480F838100068C7
:101E580003F011FD002084F8BC0410BD0220704777
:101E680038B505468C4611F0800F29D101F00F0EC8
:101E78000EEBCE04A40004F51E740444211D0EEBE1
:101E8800CE0E00EB8E0E00208EF87D020CF00F0CAB
:101E980081F800C08A600B714A780AB1A1F81AC0AB
:101EA800022B1DD095F8BC34012B1CD0012385F8DA
:101EB800BC34286803F008FA002085F8BC0438BD53
:101EC80001F00F0000EBC0018900383129440431CA
:101ED80000EBC00005EB8000012480F83D40D5E709
:101EE80000234B71DEE70220E9E710B504460A46F5
:101EF80011F0800F20D101F00F0000EBC0039B0010
:101F080003F51E732344191D00EBC00004EB800089
:101F1800002380F87D3202F00F020A7094F8BC3476
:101F2800012B19D0012384F8BC34206803F01AFA75
:101F3800002084F8BC0410BD01F00F0000EBC003C2
:101F48009B0038332344191D00EBC00004EB8000CC
:101F5800012380F83D30DEE70220ECE708B501F008
:101F68000F0C0CEBCC01890001F51E710144043102
:101F78000CEBCC0E00EB8E0ECEF88822CEF88C320D
:101F88000023CEF890328EF87D328EF87CC2C3687A
:101F9800012B05D0DAB2006803F0CAFA002008BDA8
:101FA800CEF89822F6E708B501F00F0C0CEBCC013F
:101FB80089003831014404310CEBCC0E00EB8E0E55
:101FC800CEF84820CEF84C300023CEF8503001230C
:101FD8008EF83D308EF83CC0C368012B05D0DAB2CC
:101FE800006803F0A5FA002008BDCEF85820F6E7EF
:101FF80038B501F00F054268954239D804460B46BA
:1020080011F0800F1FD101EBC101890001F51E718C
:102018000144043103EBC30300EB8303002283F87C
:102028007D2201238B700D7094F8BC34012B21D0D4
:10203800012384F8BC34206803F0C2FB8DB1002072
:1020480084F8BC0438BD05EBC5018900383101446A
:10205800043105EBC50300EB8303012283F83D201F
:10206800DFE704F2C442217B206803F0A7FCE6E71F
:102078000120E7E70220E5E701F00F0342689342F9
:1020880031D810B5044611F0800F1ED103EBC301FF
:10209800890001F51E710144043103EBC30200EB12
:1020A8008202002082F87D0200228A700B7094F868
:1020B800BC34012B19D0012384F8BC34206803F008
:1020C800ACFB002084F8BC0410BD03EBC3018900FD
:1020D80038310144043103EBC30200EB82020120D2
:1020E80082F83D00E0E7012070470220ECE708B5E0
:1020F80011F0800F0CD101F00F0101EBC101890033
:1021080001F51E7101440431006803F09BF908BD14
:1021180001F00F0101EBC10189003831014404319C
:10212800F2E72DE9F04F83B004460568284603F02E
:10213800FFFB10B103B0BDE8F08F0646206803F03E
:10214800C6FB0028F6D005F50067BB68C3F30D236E
:10215800C4F8FC34206803F0BAFB10F0020F04D076
:102168002268536903F002035361206803F0AFFB50
:1021780010F0100F14D02268936923F010039361B4
:10218800D5F8208008F00F09C8F34343022B69D023
:10219800062B00F08D802268936943F01003936149
:1021A800206803F094FB10F4002F40F0938020681F
:1021B80003F08DFB10F4802F40F0FC80206803F0C2
:1021C80086FB0028C0F27F81206803F080FB10F4B2
:1021D800006F09D0BB6813F0010F40F08C812268B2
:1021E800536903F400635361206803F070FB10F037
:1021F800006F15D02268536903F00063536194F8A7
:10220800F434002B40F07B81012184F8F414236816
:102218005B6DC3F38303C4F8F834204600F0C2FAB8
:10222800206803F054FB10F4805F40F06C81206854
:1022380003F04DFB10F4005F40F0B881206803F014
:1022480046FB10F0080F40F0C981206803F03FFBFF
:1022580010F0800F00F0DC81AB6923F08003AB61E4
:102268000126C5E147F6F07318EA030F93D04FEA49
:10227800181B4FEAC903019309EBC90A04EB8A0A40
:10228800C8F30A12DAF88812284603F06FFACBF37B
:102298000A0BDAF888325B44CAF88832019B4B444F
:1022A80004EB8303D3F890325B44CAF8903272E7A8
:1022B800082204F2C441284603F058FAC8F30A1861
:1022C80009EBC90204EB8202D2F890324344C2F807
:1022D800903260E7206803F0FEFA8046B14635E0A8
:1022E80005EB49130122C3F8082B49462046FFF79E
:1022F800F9FC3CE005EB49130822C3F8082B4946D2
:102308002046FFF771FD35E009EBC90304EB8303B1
:1023180093F87F32012B41D005EB49130222C3F811
:10232800082B1AF0200F04D005EB49132022C3F81C
:10233800082B1AF4005F05D005EB49134FF400523F
:10234800C3F8082B09F101094FEA5808B8F1000F42
:102358003FF42DAF18F0010FF4D05FFA89FB59460E
:10236800206803F0C8FA824610F0010FB8D11AF0BD
:10237800080FBFD11AF0100F04D005EB4913102233
:10238800C3F8082B1AF0020FCBD06B6913F0800F3B
:10239800BAD07B6843F480637B60B5E709EBC90377
:1023A80004EB8303002283F87F225946204604F079
:1023B800ADFBB1E7206803F096FA8046B14625E008
:1023C8005946204604F05CFB1AF0080F04D005EBD0
:1023D80049130822C3F808291AF0100F04D005EB96
:1023E80049131022C3F808291AF0400F04D005EB4E
:1023F80049134022C3F808291AF0020F40D11AF0F5
:10240800800F5BD109F101094FEA5808B8F1000FB4
:102418003FF4D4AE18F0010FF4D05FFA89FB5946A7
:10242800206803F071FA824610F0010FCCD009F051
:102438000F03012101FA03F27B6B23EA02037B639A
:1024480005EB4913C3F80819E3688B42B8D109EBC7
:10245800C90304EB8303596C9A6C0A449A64B9F172
:10246800000FADD109EBC90304EB8303DB6C002B30
:10247800A6D104F2C4420121206803F09FFA9FE725
:102488004946284602F0F6FD09EBC90304EB83032D
:1024980093F83F30012B05D005EB49130222C3F80E
:1024A8000829ACE709EBC90304EB8303002283F88E
:1024B8003F205946204604F02FFBEDE749462046C9
:1024C800FFF7E7FA9EE77B6823F001037B6094F847
:1024D800F434012B08D0204604F012FB226853691B
:1024E80003F0004353616FE6002184F8F41420469A
:1024F80000F058F9F2E7204604F0EAFA6FE62046C1
:1025080004F0E6FA8CE67B6823F001037B60102177
:10251800206802F0AFFD1AE005EB46134FF67F3155
:10252800C3F80819D3F8002922F40012C3F80029C7
:10253800C3F8081BD3F8002B22F40012C3F8002BB1
:10254800D3F8002B42F00062C3F8002B0136636811
:10255800B342E1D8FB6943F00113FB61236BDBB1A4
:10256800D7F8843043F00B03C7F884307B6C43F012
:102578000B037B64D5F8003823F4FE63C5F80038F4
:1025880004F2C442217B206803F018FA22685369D8
:1025980003F4805353614AE67A6942F22B031343EA
:1025A8007B613B6943F00B033B61E3E7206803F081
:1025B800F5F9206802F078FE2061266800F0C4FE74
:1025C8000146227C304602F0D7FC204604F069FA26
:1025D8002268536903F4005353612FE6204604F040
:1025E8005AFA2268536903F0080353612DE601364D
:1025F8006368B3420CD906EBC60304EB830393F874
:102608007F32012BF3D1F1B22046FFF770FDEEE7E0
:10261800206803F05CF910F4801F27D1206803F0CC
:1026280056F910F4001F5BD0012328E001366368D7
:10263800B3421DD905EB4613D3F8002906EBC603B0
:1026480004EB830393F84030012BEFD1002AEDDA35
:1026580006EBC60304EB8303012283F83F2066F0F0
:102668007F01C9B22046FFF742FDDFE70126DEE71A
:102678002268536903F480135361CFE7013362681A
:102688009A4228D905EB4312D2F8001B03EBC30288
:1026980004EB820292F88022012AEFD10029EDDAB8
:1026A80001F48031D4F8FC2402F001029142E5D112
:1026B80003EBC30204EB8202012182F87F12AA69AC
:1026C80042F08002AA616A6912F0800FD6D17B6855
:1026D80043F400737B602268536903F40013536169
:1026E800206803F0F4F810F0804F10D1206803F050
:1026F800EEF810F0040F3FF41DAD23685D6815F087
:10270800040F0DD1226853682B43536012E520460D
:1027180004F008FA2268536903F080435361E5E73F
:10272800204604F005FAEDE710B40468606A31B990
:1027380040EA0240A06200205DF8044B70478C46D6
:10274800A36A00EB1340002308E003F1400104EB07
:102758008101496800EB11400133DBB20CF1FF3114
:102768008B42F2D340EA02400CF13F0104EB8101B5
:102778004860E0E703685962002070470346026832
:102788000121C0F80015002083F8F404936943F090
:1027980000639361516D024B0B435365704700BF53
:1027A8000300001070470000134BDB6813F0040FA0
:1027B80007D1114BDB6803F0070383421AD00120CD
:1027C800704710B50C4AD36823F007031843D0604C
:1027D800FEF7C2F80446084B5B6813F4005F07D1A4
:1027E800FEF7BAF8001BB0F57A7FF4D9012000E0B3
:1027F800002010BD0020704700480258024AD368E4
:1028080043F08073D360704700480258002800F0F6
:10281800398338B50446036813F0010F25D0944A6C
:10282800136903F03803926A102B15D0182B0FD0B8
:102838006368B3F5803F3FD0002B53D18C4B1A68A7
:1028480022F480321A601A6822F480221A6038E072
:1028580002F00302022AEBD1854B1B6813F4003FF8
:1028680003D06368002B00F00F83236813F0020F76
:1028780000F0A1807E4A1369926A13F038035AD097
:10288800182B55D0E368002B00F0DE8078490A68E1
:1028980022F0190213430B60FEF75EF80546744BED
:1028A8001B6813F0040F40F0AD80FEF755F8401B8D
:1028B8000228F4D90320EEE26D4A136843F480330A
:1028C800136063682BB3FEF747F80546684B1B682F
:1028D80013F4003FC9D1FEF73FF8401B6428F5D92F
:1028E8000320D8E2B3F5A02F09D0614B1A6822F46F
:1028F80080321A601A6822F480221A60E1E75C4B81
:102908001A6842F480221A601A6842F480321A6007
:10291800D7E7FEF721F80546554B1B6813F4003F2F
:10292800A3D0FEF719F8401B6428F5D90320B2E2BA
:1029380012F0030FA6D14E4B1B6813F0040F03D0FF
:10294800E368002B00F0A282494A136823F01903B8
:10295800E1680B431360FDF7FFFF0546444B1B6816
:1029680013F0040F06D1FDF7F7FF401B0228F5D935
:10297800032090E2FEF70AF841F20303984212D8C6
:102988002269402A07D03A494B6823F47C3343EA4A
:1029980002334B600FE0364A536823F47C3343F428
:1029A8000033536007E0324A536823F0FE4321693D
:1029B80043EA01635360236813F0100F00F0888026
:1029C8002B4A136903F03803926A082B56D0182B48
:1029D80050D0E369002B00F0B880254A136843F013
:1029E80080031360FDF7B8FF0546214B1B6813F4FD
:1029F800807F40F08880FDF7AFFF401B0228F4D9A4
:102A0800032048E2FDF7C2FF41F20303984212D8BF
:102A18002269402A07D016494B6823F47C3343EADD
:102A280002334B60C7E7124A536823F47C3343F4FC
:102A380000335360BFE70E4A536823F0FE43216911
:102A480043EA01635360B6E7094A136823F00103B8
:102A58001360FDF781FF0546054B1B6813F0040F53
:102A6800A9D0FDF779FF401B0228F5D9032012E20F
:102A78000044025802F00302012AAAD1A14B1B68A4
:102A880013F4807F03D0E369802B40F00182FDF7C7
:102A98007DFF41F20303984212D8226A202A07D008
:102AA80098494B6823F0F84343EA82634B600FE090
:102AB800944A536823F0F84343F08043536007E097
:102AC800904AD36823F07C53216A43EA0163D360B8
:102AD800236813F0080F60D06369002B49D0894A36
:102AE800536F43F001035367FDF736FF0546854BE7
:102AF8005B6F13F0020F50D1FDF72EFF401B022829
:102B0800F5D90320C7E1FDF741FF41F203039842DD
:102B180012D8226A202A07D07A494B6823F0F84352
:102B280043EA82634B60D3E7764A536823F0F8435D
:102B380043F080435360CBE7724AD36823F07C5359
:102B4800216A43EA0163D360C2E76E4A136823F03F
:102B580080031360FDF700FF05466A4B1B6813F4FA
:102B6800807FB5D0FDF7F8FE401B0228F5D9032079
:102B780091E1644A536F23F001035367FDF7ECFEBC
:102B88000546604B5B6F13F0020F06D0FDF7E4FEBD
:102B9800401B0228F5D903207DE1236813F0200F9C
:102BA80029D0A3699BB1574A136843F48053136033
:102BB800FDF7D2FE0546534B1B6813F4005F1AD18C
:102BC800FDF7CAFE401B0228F5D9032063E14D4AF0
:102BD800136823F480531360FDF7BEFE0546494B86
:102BE8001B6813F4005F06D0FDF7B6FE401B0228F1
:102BF800F5D903204FE1236813F0040F21D1636A4C
:102C0800002B00F047813F4A126902F03802182A67
:102C180000F0EE80022B79D03A4A136823F08073D3
:102C28001360FDF799FE0446364B1B6813F0007FCE
:102C380000F0DC80FDF790FE001B0228F4D9032089
:102C480029E1314A136843F480731360FDF784FE69
:102C580005462D4B1B6813F4807F06D1FDF77CFEDB
:102C6800401B6428F5D9032015E1A368012B0AD07D
:102C78000BBB244B1A6F22F001021A671A6F22F05D
:102C880004021A6704E01F4A136F43F00103136735
:102C9800A36833B3FDF760FE05461A4B1B6F13F0AC
:102CA800020FACD1FDF758FE401B41F28833984221
:102CB800F3D90320EFE0052B09D0124B1A6F22F04D
:102CC80001021A671A6F22F004021A67E0E70D4B37
:102CD8001A6F42F004021A671A6F42F001021A676B
:102CE800D6E7FDF739FE0546064B1B6F13F0020FBA
:102CF80085D0FDF731FE401B41F288339842F3D965
:102D08000320C8E00044025800480258694A136882
:102D180023F080731360FDF71FFE0546654B1B68A3
:102D280013F0007F06D0FDF717FE401B0228F5D9E7
:102D38000320B0E05F4B996A5F4A0A40A16AE06AE3
:102D480041EA00110A439A62226B013AC2F308026F
:102D5800616B0139490289B20A43A16B013909043F
:102D680001F4FE010A43E16B0139090601F0FE4155
:102D78000A431A63DA6A22F00102DA62596B4F4A8F
:102D88000A40A16C42EAC1025A63DA6A22F00C02D4
:102D9800216C0A43DA62DA6A22F00202616C0A43A1
:102DA800DA62DA6A42F48032DA62DA6A42F40032CB
:102DB800DA62DA6A42F48022DA62DA6A42F00102FE
:102DC800DA621A6842F080721A60FDF7C5FD04469F
:102DD800384B1B6813F0007F06D1FDF7BDFD001BC3
:102DE8000228F5D9032056E0002054E0002052E0E4
:102DF800304A916A106B012B4ED001F00303A26A8E
:102E080093424BD1C1F30511E36A994248D1C0F30B
:102E18000802236B013B9A4244D1C0F34622636BFC
:102E2800013B9A4240D1C0F30642A36B013B9A4250
:102E38003CD1C0F30660E36B013B984238D11D4B8F
:102E48005B6BC3F3CC03A26C9A4201D1002022E051
:102E5800184AD36A23F00103D362FDF77DFD0546C6
:102E6800FDF77AFDA842FBD0124A516B134B0B4079
:102E7800A16C43EAC1035363D36A43F00103D362ED
:102E8800002008E001207047012004E0012002E052
:102E9800012000E0002038BD0120FCE70120FAE70E
:102EA8000120F8E70120F6E70120F4E70120F2E726
:102EB8000120F0E7004402580CFCFFFF0700FFFF69
:102EC800744B1B6903F03803102B00F0DE80182BBD
:102ED80010D00BB1704870476E4B1B6813F0200F71
:102EE80000F0D5806B4B1868C0F3C1006B4B23FA18
:102EF80000F0704710B4674A916A01F00301946AC0
:102F0800C4F30510D36A03F0010C536BC3F3CC036D
:102F18000CFB03F307EE903AF8EE677A14F47C7F23
:102F280000F09380012965D0022900F09180E1B179
:102F380007EE100AF8EE476A9FED596A86EE267A80
:102F4800544B1B6BC3F3080306EE903AF8EE666A1F
:102F58009FED546A67EE867A76EEA77AF7EE006AF6
:102F680077EEA67A27EE277A60E0136813F0200F31
:102F780023D011461268C2F3C102484BD34007EE72
:102F8800103AF8EE476A07EE100AB8EE476A86EE7E
:102F9800867A0B6BC3F3080306EE903AF8EE666A7E
:102FA8009FED406A67EE867A76EEA77AF7EE006ABA
:102FB80077EEA67A27EE277A38E007EE100AF8EEC1
:102FC800476A9FED396A86EE267A324B1B6BC3F34C
:102FD800080306EE903AF8EE666A9FED326A67EEED
:102FE800867A76EEA77AF7EE006A77EEA67A27EE6B
:102FF800277A1BE007EE100AF8EE476A9FED286A69
:1030080086EE267A234B1B6BC3F3080306EE903A31
:10301800F8EE666A9FED236A67EE867A76EEA77AFF
:10302800F7EE006A77EEA67A27EE277A194B1B6B24
:10303800C3F34623013307EE903AF8EE677AC7EEFA
:10304800276AFCEEE67A17EE900A5DF8044B7047A3
:1030580007EE100AF8EE476A9FED146A86EE267AA4
:103068000C4B1B6BC3F3080306EE903AF8EE666A46
:103078009FED0C6A67EE867A76EEA77AF7EE006A1D
:1030880077EEA67A27EE277AD0E7094870470348F3
:10309800704700BF0044025800093D000090D0036B
:1030A8000024744A000000390024744C20BCBE4B34
:1030B80040787D01002800F0328170B50D46044645
:1030C8009B4B1B6803F00F038B420BD2984A136883
:1030D80023F00F030B431360136803F00F038B42B5
:1030E80040F01F81236813F0040F0CD02269914B24
:1030F8009B6903F070039A4205D98E498B6923F0C6
:1031080070031A438A61236813F0080F0CD06269B0
:10311800884BDB6903F070039A4205D98549CB696E
:1031280023F070031A43CA61236813F0100F0CD000
:10313800A269804BDB6903F4E0639A4205D97D49B3
:10314800CB6923F4E0631A43CA61236813F0200FA4
:103158000CD0E269774B1B6A03F070039A4205D9D9
:1031680074490B6A23F070031A430A62236813F048
:10317800020F0CD0E2686F4B9B6903F00F039A4271
:1031880005D96C498B6923F00F031A438A612368B8
:1031980013F0010F41D0674A936923F47063A16863
:1031A8000B4393616368022B0AD0032B27D0012BB2
:1031B8002CD0604A126812F0040F06D10120ADE04D
:1031C800126812F4003F00F0AE805A490A6922F0F2
:1031D800070213430B61FDF7BFFB0646554B1B69FE
:1031E80003F038036268B3EBC20F16D0FDF7B4FBE7
:1031F800801B41F288339842F0D903208EE04D4A73
:10320800126812F0007FE0D1012087E0494A126875
:1032180012F4807FD9D1012080E0236813F0020FD7
:103228000CD0E268434B9B6903F00F039A4205D226
:1032380040498B6923F00F031A438A613C4B1B6892
:1032480003F00F03AB420AD9394A136823F00F037E
:103258002B431360136803F00F03AB4265D1236857
:1032680013F0040F0CD02269324B9B6903F07003F2
:103278009A4205D22F498B6923F070031A438A6159
:10328800236813F0080F0CD062692A4BDB6903F03E
:1032980070039A4205D22749CB6923F070031A4379
:1032A800CA61236813F0100F0CD0A269214BDB69A7
:1032B80003F4E0639A4205D21E49CB6923F4E06324
:1032C8001A43CA61236813F0200F0CD0E269194B26
:1032D8001B6A03F070039A4205D216490B6A23F061
:1032E80070031A430A62FFF7EBFD12498B69C3F3B7
:1032F8000323114AD35C03F01F03D8408B6903F002
:103308000F03D35C03F01F0320FA03F30B4A136087
:103318000B4B18600B4B1868FDF7BCFA70BD012009
:1033280070470120FAE70120F8E70120F6E700BF1F
:10333800002000520044025858700008040000247D
:10334800000000240C00002408B5FFF7B9FD0B4A63
:103358009369C3F303230A49CB5C03F01F0320FAE4
:1033680003F3926902F00F02885C00F01F0023FA51
:1033780000F0044A1060044A136008BD0044025873
:1033880058700008040000240000002408B5FFF766
:10339800DBFF054BDB69C3F30213044AD35C03F07C
:1033A8001F03D84008BD00BF0044025858700008E9
:1033B80008B5FFF7C9FF054BDB69C3F30223044ACD
:1033C800D35C03F01F03D84008BD00BF0044025877
:1033D80058700008404B9B6A03F00303032B79D015
:1033E80070B505460E463C4A136823F080631360A7
:1033F800FDF7B2FA0446384B1B6813F0006F06D08D
:10340800FDF7AAFA031B022BF5D9032070BD324B36
:103418009A6A22F47C32296842EA01329A626A681E
:10342800013AC2F30802A9680139490289B20A437C
:10343800E9680139090401F4FE010A4329690139DF
:10344800090601F0FE410A439A63DA6A22F0C002D3
:1034580069690A43DA62DA6A22F02002A9690A4332
:10346800DA62DA6A22F01002DA62D96B1B4A0A4081
:10347800E96942EAC102DA63DA6A42F01002DA6202
:10348800C6B91A46DB6A43F40023D362124A1368AA
:1034980043F080631360FDF75FFA04460E4B1B6828
:1034A80013F0006F14D1FDF757FA001B0228F5D965
:1034B8000320ABE7012E05D0074AD36A43F4001373
:1034C800D362E3E7044AD36A43F48013D362DDE7A7
:1034D80000209BE701207047004402580700FFFFC7
:1034E800404B9B6A03F00303032B79D070B5054664
:1034F8000E463C4A136823F080531360FDF72CFAFC
:103508000446384B1B6813F0005F06D0FDF724FA19
:10351800031B022BF5D9032070BD324B9A6A22F0A7
:103528007C72296842EA01529A626A68013AC2F3D7
:103538000802A9680139490289B20A43E9680139D0
:10354800090401F4FE010A4329690139090601F059
:10355800FE410A431A64DA6A22F4406269690A433E
:10356800DA62DA6A22F40072A9690A43DA62DA6A6C
:1035780022F48072DA62596C1B4A0A40E96942EA0D
:10358800C1025A64DA6A42F48072DA62C6B91A462B
:10359800DB6A43F48003D362124A136843F0805312
:1035A8001360FDF7D9F904460E4B1B6813F0005F52
:1035B80014D1FDF7D1F9001B0228F5D90320ABE798
:1035C800012E05D0074AD36A43F08073D362E3E73C
:1035D800044AD36A43F40003D362DDE700209BE783
:1035E80001207047004402580700FFFFF8B5044661
:1035F800036813F0006F30D0836EB3F5001F26D038
:103608000ED8EBB1B3F5801F07D102210830FFF7C0
:10361800E1FE054645B12E4621E0012635461EE06D
:10362800B3F5401F09D10025984A136D23F44013C0
:10363800A16E0B431365002611E0012635460EE006
:10364800924AD36A43F40033D3620025ECE702219F
:103658002830FFF745FF0546DCE700263546236896
:1036680013F4807F14D0A36D042B32D8DFE803F065
:1036780003232A080800854AD36A43F40033D36237
:1036880055BB824A136D23F00703A16D0B431365E5
:10369800236813F4007F31D0E36D802B4CD020D801
:1036A800002B43D0402B19D1002104F10800FFF76B
:1036B80091FE05461AE0002104F10800FFF78AFE92
:1036C8000546DDE7002104F12800FFF709FF05465C
:1036D800D6E701263546DBE72E46D9E701263546EB
:1036E8000CE0C02B02D0B3F5807F1CD15DBB674ACC
:1036F800136D23F4E073E16D0B431365236813F432
:10370800806F46D0D4F8A830B3F5800F39D01FD8D1
:103718008BB3B3F5001F18D1002104F10800FFF79F
:1037280059FE05461AE001263546E7E7574AD36AA7
:1037380043F40033D362D9E7002104F12800FFF7EE
:10374800CFFE0546D2E72E46D8E70126354620E0CB
:10375800B3F5C00F02D0B3F5000F09D1C5B94B4A74
:10376800936D23F46003D4F8A8100B43936510E01D
:10377800012635460DE0454AD36A43F40033D36247
:10378800ECE7002104F12800FFF7AAFE0546E5E76B
:103798002E46236813F4006F24D0D4F8AC30B3F16C
:1037A800007F42D00ED8002B39D0B3F1807F06D1EC
:1037B800002104F10800FFF70DFE054608E0012688
:1037C80035460FE0B3F1407F02D0B3F1806F23D1CB
:1037D800002D31D12D4A936D23F0E063D4F8AC105D
:1037E8000B439365236813F0007F2ED0E36C202BE6
:1037F80040D026D833B1102B20D1244AD36A43F4C1
:103808000033D362002D3CD1204AD36C23F030031F
:10381800E16C0B43D36418E001263546E2E71B4A06
:10382800D36A43F40033D362D2E7002104F12800BD
:10383800FFF756FE0546CBE72E46D3E70126354669
:1038480003E0302BDED001263546236813F4805F71
:103858002DD0236EB3F5005F4FD019D8002B46D07A
:10386800B3F5805F0FD1002104F10800FFF7B2FD26
:10387800054613E0022104F10800FFF7ABFD0546F9
:10388800C0E72E46E1E70126354610E0004402581D
:10389800B3F5405F02D0B3F5804F25D1002D33D169
:1038A800774A136D23F4E043216E0B4313652368B5
:1038B80013F4005F38D0636EB3F5003F53D028D8B7
:1038C80043B1B3F5803F21D1012104F10800FFF78E
:1038D80081FD0546002D4DD1694A136D23F4E0237F
:1038E800616E0B4313651FE001263546DFE7644A26
:1038F800D36A43F40033D362D0E7002104F12800EF
:10390800FFF7EEFD0546C9E72E46D0E70126354606
:103918000AE0B3F5802FDDD0B3F5A02FDAD0B3F5E8
:10392800403FD7D001263546236813F4804F31D065
:10393800D4F8B030B3F1005F45D020D843B1B3F12B
:10394800805F19D1012104F10800FFF743FD054606
:10395800002D3FD14A4A936D23F0E043D4F8B010CC
:103968000B43936516E0012104F12800FFF7B8FD29
:103978000546AFE72E46D7E7012635460AE0B3F1FC
:10398800804FE5D0B3F1A04FE2D0B3F1405FDFD074
:1039980001263546236813F4004F09D0236FB3F18D
:1039A800805F19D0B3F1005F24D0D3B1012635462A
:1039B800236813F0807F33D0A36C032B5BD8DFE838
:1039C80003F027225327012104F12800FFF788FD7F
:1039D8000546BDE72E46DDE7294AD36A43F400339E
:1039E800D36275B9264A136D23F04053216F0B43F8
:1039F8001365DDE7012104F10800FFF7EBFC05463C
:103A0800EFE72E46D4E71E4AD36A43F40033D36265
:103A1800A5BB1B4AD36C23F00303A16C0B43D364EF
:103A2800236813F4800F2DD1236813F0010F00F0E1
:103A3800A580E36F282B00F29F80DFE803F08D9DBF
:103A48009D9D9D9D9D9D879D9D9D9D9D9D9D969DBB
:103A58009D9D9D9D9D9D8D9D9D9D9D9D9D9D8D9DAE
:103A68009D9D9D9D9D9D8D00022104F10800FFF7FD
:103A7800B1FC0546CCE701263546D1E72E46CFE70F
:103A880000440258914A136843F480731360FCF7AA
:103A980063FF07468D4B1B6813F4807F05D1FCF745
:103AA8005BFFC01B6428F5D90325002D4AD1884B3C
:103AB8001B6FD4F8B420534013F4407F0CD0844BD0
:103AC8001A6F22F44072196F41F480311967196F27
:103AD80021F4803119671A67D4F8B430B3F5807FC0
:103AE80015D08DBBD4F8B43003F44072B2F5407FE2
:103AF8001ED0774A136923F47C53136174490B6F02
:103B0800D4F8B420C2F30B0213430B678CE7FCF71D
:103B180023FF07466E4B1B6F13F0020FE1D1FCF732
:103B28001BFFC01B41F288339842F3D90325D8E71D
:103B38006748026922F47C52664901EA1313134369
:103B48000361DBE72E466FE72E466DE7012104F19E
:103B58000800FFF73FFC0546E5B95D4A536D23F0C1
:103B68003803E16F0B43536508E0012104F1280095
:103B7800FFF7B6FC0546EFE701263546236813F044
:103B8800020F17D0A36F052B28D8DFE803F00B0529
:103B9800200B0B0B2E46F1E7012104F10800FFF77B
:103BA80019FC0546EDB94A4A536D23F00703A16F86
:103BB8000B435365236813F0040F23D0D4F89430D3
:103BC800052B45D8DFE803F0150F3D151515012124
:103BD80004F12800FFF784FC0546E3E70126354693
:103BE800E8E72E46E6E7012104F10800FFF7F2FBBB
:103BF800054685BB364A936D23F00703D4F8941025
:103C08000B439365236813F0200F34D0D4F8903019
:103C1800B3F1005F4ED023D843B1B3F1805F1CD11C
:103C2800002104F10800FFF7D5FB0546002D48D117
:103C3800274A536D23F0E043D4F890100B435365A3
:103C480019E0012104F12800FFF74AFC0546D0E7F6
:103C580001263546D6E72E46D4E7012635460AE042
:103C6800B3F1804FE2D0B3F1A04FDFD0B3F1405FA2
:103C7800DCD001263546236813F0400F37D0D4F83E
:103C88009C30B3F5006F53D026D843B1B3F5806F9D
:103C980019D1002104F10800FFF79CFB0546002D0F
:103CA8004DD10B4A936D23F4E053D4F89C100B4389
:103CB80093651CE0022104F12800FFF711FC05467A
:103CC800B4E72E46D7E70126354610E000480258EB
:103CD80000440258CFFFFF00B3F5805FDFD0B3F593
:103CE800A05FDCD0B3F5406FD9D0012635462368F4
:103CF80013F0800F33D0D4F8A030B3F5804F00F024
:103D0800A38021D843B1B3F5005F1AD1002104F193
:103D18000800FFF75FFB0546002D40F09C80814AB4
:103D2800936D23F46043D4F8A0100B43936516E019
:103D3800022104F12800FFF7D3FB0546AFE72E4622
:103D4800D5E7012635460AE0B3F5004FE4D0B3F5D0
:103D5800204FE1D0B3F5C04FDED0012635462368A9
:103D680013F0080F0CD0D4F88430B3F5805F74D00A
:103D78006C4A536D23F44053D4F884100B435365B5
:103D8800236813F0100F0CD0D4F89830B3F5807F67
:103D98006CD0644A936D23F44073D4F898100B43A5
:103DA8009365236813F4002F0BD0D4F8A430B3F52F
:103DB800803F74D0B3F5003F67D0002B5FD0012659
:103DC8003546236813F4802F0CD0D4F88830B3F527
:103DD800001F7CD0B3F5401F6FD0B3F5801F67D0AC
:103DE80001263546236813F4803F08D0236D002B45
:103DF80076D0B3F5803F00F08180012635462368F0
:103E080013F0005F40F08380236813F4003F00F054
:103E18008E80D4F88030B3F5807F00F0EC8040F2DB
:103E28008380B3F5007F03D0B3F5407F40F0E18095
:103E3800002D40F0E6803B4A536D23F44073D4F8DC
:103E480080100B43536572E0022104F12800FFF74C
:103E580047FB054660E72E4681E7022104F128006A
:103E6800FFF73EFB002883D0012681E7022104F1F9
:103E78002800FFF735FB00288BD0012689E70021B1
:103E880004F10800FFF7A6FA05467DB9254A936DA7
:103E980023F44033D4F8A4100B43936591E702212F
:103EA80004F12800FFF71CFB0546EEE72E4688E7DD
:103EB8001C4AD36A43F40033D3627DB9194A536D5F
:103EC80023F44013D4F888100B4353658AE7012183
:103ED80004F12800FFF704FB0546EEE72E4681E7CC
:103EE800104AD36A43F40033D36275B90D4AD36CD0
:103EF80023F48033216D0B43D36480E7022104F15E
:103F08000800FFF767FA0546EFE72E4677E7022134
:103F180004F12800FFF7E4FA00283FF475AF012602
:103F280072E700BF00440258002B81D001262368A5
:103F380013F4801F06D04F4A136D23F00043616FBE
:103F48000B431365236813F0805F07D0494A136950
:103F580023F48043D4F8B8100B431361236813F497
:103F6800001F06D0434A136D23F08073E16E0B43A4
:103F78001365236813F0804F09D03E4B1A6922F469
:103F880000421A611A69D4F8BC100A431A612368FE
:103F9800002B06DA374AD36C23F04053616D0B438C
:103FA800D364236813F4000F07D0324A536D23F407
:103FB8004003D4F88C100B435365636813F0010F6A
:103FC80021D1636813F0020F26D1636813F0040F40
:103FD8002BD1636813F0080F30D1636813F0100F0A
:103FE80035D1636813F0200F3AD106B10126304667
:103FF800F8BD01269BE71F4AD36A43F40033D36216
:1040080016E72E4693E7002104F10800FFF7E2F9CE
:104018000028D6D00646D4E7012104F10800FFF7AE
:10402800D9F90028D1D00646CFE7022104F10800CB
:10403800FFF7D0F90028CCD00646CAE7002104F1E2
:104048002800FFF74DFA0028C7D00646C5E701212A
:1040580004F12800FFF744FA0028C2D00646C0E75A
:10406800022104F12800FFF73BFA0028BDD00646DC
:10407800BBE700BF0044025808B5FFF765F9054BD8
:104088001B6AC3F30213044AD35C03F01F03D8402E
:1040980008BD00BF004402585870000810B5774AA0
:1040A800916A946AC4F3053ED36AC3F3001CD36BC8
:1040B800C3F3CC030CFB03F314F47C3F00F0D8806B
:1040C80001F0030107EE903AF8EE677A012965D00E
:1040D800022900F0B080E1B107EE10EAB8EE477AA5
:1040E8009FED676AC6EE076A644B9B6BC3F30803D0
:1040F80007EE103AB8EE477A9FED626A67EE867A65
:1041080077EE277AB7EE007A77EE877A66EEA76AB7
:1041180060E0136813F0200F23D011461268C2F331
:10412800C102594BD34007EE103AB8EE477A06EE73
:1041380090EAB8EE666AC7EE066A8B6BC3F30803AB
:1041480007EE103AB8EE477A9FED4E6A67EE867A28
:1041580077EE277AB7EE007A77EE877A66EEA76A67
:1041680038E007EE10EAB8EE477A9FED486AC6EEE7
:10417800076A424B9B6BC3F3080307EE103AB8EE8D
:10418800477A9FED406A67EE867A77EE277AB7EE30
:10419800007A77EE877A66EEA76A1BE007EE10EAE8
:1041A800B8EE477A9FED366AC6EE076A334B9B6BCB
:1041B800C3F3080307EE103AB8EE477A9FED316A69
:1041C80067EE867A77EE277AB7EE007A77EE877A07
:1041D80066EEA76A294A936BC3F3462307EE103AA3
:1041E800B8EE477AB7EE006A37EE067AC6EE877AF7
:1041F800FCEEE77AC0ED007A936BC3F3064307EE53
:10420800103AB8EE477A37EE067AC6EE877AFCEEB1
:10421800E77AC0ED017A936BC3F3066307EE903A31
:10422800F8EE677A77EE867A86EEA77ABCEEC77ADA
:1042380080ED027A10BD07EE10EAB8EE477A9FEDDE
:10424800146AC6EE076A0D4B9B6BC3F3080307EEAF
:10425800103AB8EE477A9FED0B6A67EE867A77EEEA
:10426800277AB7EE007A77EE877A66EEA76AB1E723
:104278000023036043608360DCE700BF004402580A
:104288000024744A000000390090D0030024744CC4
:1042980020BCBE4B10B5774A916A946AC4F3055E98
:1042A800D36AC3F3002C536CC3F3CC030CFB03F3A6
:1042B80014F07C7F00F0D88001F0030107EE903AFB
:1042C800F8EE677A012965D0022900F0B080E1B1E3
:1042D80007EE10EAB8EE477A9FED676AC6EE076AFE
:1042E800644B1B6CC3F3080307EE103AB8EE477A29
:1042F8009FED626A67EE867A77EE277AB7EE007AE4
:1043080077EE877A66EEA76A60E0136813F0200FED
:1043180023D011461268C2F3C102594BD34007EEAD
:10432800103AB8EE477A06EE90EAB8EE666AC7EE3B
:10433800066A0B6CC3F3080307EE103AB8EE477A27
:104348009FED4E6A67EE867A77EE277AB7EE007AA7
:1043580077EE877A66EEA76A38E007EE10EAB8EEDD
:10436800477A9FED486AC6EE076A424B1B6CC3F357
:10437800080307EE103AB8EE477A9FED406A67EEF9
:10438800867A77EE277AB7EE007A77EE877A66EE46
:10439800A76A1BE007EE10EAB8EE477A9FED366A87
:1043A800C6EE076A334B1B6CC3F3080307EE103ADB
:1043B800B8EE477A9FED316A67EE867A77EE277A0C
:1043C800B7EE007A77EE877A66EEA76A294A136C09
:1043D800C3F3462307EE103AB8EE477AB7EE006A01
:1043E80037EE067AC6EE877AFCEEE77AC0ED007AF9
:1043F800136CC3F3064307EE103AB8EE477A37EE6C
:10440800067AC6EE877AFCEEE77AC0ED017A136C7D
:10441800C3F3066307EE903AF8EE677A77EE867A8A
:1044280086EEA77ABCEEC77A80ED027A10BD07EE59
:1044380010EAB8EE477A9FED146AC6EE076A0D4B8C
:104448001B6CC3F3080307EE103AB8EE477A9FEDEA
:104458000B6A67EE867A77EE277AB7EE007A77EE00
:10446800877A66EEA76AB1E700230360436083603A
:10447800DCE700BF004402580024744A00000039F9
:104488000090D0030024744C20BCBE4B026852E854
:10449800003F23F4907342E800310029F6D1026806
:1044A80002F1080353E8001F0D4B0B40083242E8A5
:1044B80000310029F3D1C36E012B06D02023C0F8A8
:1044C8008C300023C36643677047026852E8003F98
:1044D80023F0100342E800310029F6D1EEE700BFCF
:1044E800FEFFFFEF70B586B0044601688368026975
:1044F800134342691343C26913430868884A024058
:1045080013430B602268536823F44053E1680B435C
:104518005360A1692268834B9A4201D0236A1943E8
:104528009068814B03400B4393602268D36A23F061
:104538000F03616A0B43D36222687C4B9A4221D0F5
:104548007B4B9A4200F08C807A4B9A4200F0A28012
:10455800794B9A4200F0B580784B9A4200F0C880B7
:10456800774B9A4200F0F480764B9A4200F019811A
:10457800754B9A4200F02C816A4B9A4200F03F81B9
:10458800802333E0714B5B6D03F03803282B65D82B
:10459800DFE813F02900640064006400640064002C
:1045A800640064004D0164006400640064006400F9
:1045B800640064002B00640064006400640064000C
:1045C800640064005E0064006400640064006400C9
:1045D80064006400600064006400640064006400B7
:1045E800640064006200012300E008234D498A4208
:1045F80000F02F81E069B0F5004F00F0AF81202B6B
:1046080000F20782202B00F25182DFE813F01E022D
:1046180024024F024F0227024F024F024F022C0280
:104628004F024F024F024F024F024F024F02310218
:104638004F024F024F024F024F024F024F024F02EA
:104648004F024F024F024F024F024F024F023D02EC
:104658001023CBE72023C9E74023C7E78023C5E71A
:104668003A4B5B6D03F00703052B11D8DFE813F015
:104678000600E10008000A000C000E000023B5E760
:104688000823B3E71023B1E72023AFE74023ADE7C2
:104698008023ABE72D4B5B6D03F00703052B0ED88A
:1046A800DFE803F003C90507090B00239EE7082389
:1046B8009CE710239AE7202398E7402396E7802376
:1046C80094E7224B5B6D03F00703052B0ED8DFE858
:1046D80003F003B40507090B002387E7082385E7E0
:1046E800102383E7202381E740237FE780237DE7AA
:1046F800164B5B6D03F00703052B0ED8DFE803F0BC
:10470800039F0507090B002370E708236EE71023B2
:104718006CE720236AE7402368E7802366E700BF49
:10472800F369FFCF000C0058FFF4FF11001001409F
:104738000044004000480040004C00400050004049
:104748000014014000780040007C004000440258FA
:104758007D4B5B6D03F03803282B20D8DFE803F08E
:10476800151F1F1F1F1F1F1F711F1F1F1F1F1F1F09
:10477800171F1F1F1F1F1F1F191F1F1F1F1F1F1F4F
:104788001B1F1F1F1F1F1F1F1D0001232EE70823AC
:104798002CE710232AE7202328E7402326E7802355
:1047A80024E7694B5B6D03F00703052B0ED8DFE8A0
:1047B80003F0034A0507090B002317E7082315E749
:1047C800102313E7202311E740230FE780230DE789
:1047D8005D4B5B6D03F00703052B0ED8DFE803F094
:1047E80003350507090B002300E70823FEE610231D
:1047F800FCE62023FAE64023F8E68023F6E603F5F4
:104808000E339B6D03F00703052B0ED8DFE803F08A
:10481800031F0507090B0223E8E60823E6E6102331
:10482800E4E62023E2E64023E0E68023DEE60423F4
:10483800DCE60423DAE60423D8E60423D6E60423D8
:10484800D4E60423D2E60423D0E60423CEE60423E8
:10485800CCE6202B27D8022BC0F01A81023B1E2B56
:1048680000F21881DFE813F0500016015600160117
:10487800160116015B001601160116011601160134
:10488800160116016000160116011601160116011F
:104898001601160116011601160116011601160158
:1048A800160116016C00402B2CD14FF40040626AAF
:1048B800264B33F81220B0FBF2F3656805EB45018F
:1048C800994200F2E980B3EB053F00F2E780002649
:1048D80033463146FBF7DCFC090241EA106100026D
:1048E8006B08C0182A46334641F10001FBF7D0FC9B
:1048F800A0F54072164B9A4200F2D2802368D86025
:104908003046D4E00120D2E0FFF7B6FB0028CED134
:104918000020CCE003A8FFF7C1FB0498F6E768463F
:10492800FFF7B8FC0198F1E7074B1B6813F0200F5D
:1049380008D0054B1B68C3F3C1030648D840E5E718
:104948000548B4E70348B2E700440258707000080D
:10495800FFFC0F000090D00300093D00202B15D864
:10496800202B00F29F80DFE803F031379D9D3A9DB0
:104978009D9D3F9D9D9D9D9D9D9D449D9D9D9D9D16
:104988009D9D9D9D9D9D9D9D9D9D5000402B1BD156
:10499800626A4D4B33F81230B0FBF3F0626853088B
:1049A80003EB4000B0FBF2F0A0F110024FF6EF73FA
:1049B8009A4279D883B223F00F03C0F34200184318
:1049C8002368D860002072E0012070E0FEF7DEFC6A
:1049D8000028DDD100206AE0FEF7EAFCF8E703A82A
:1049E800FFF75CFB0498F3E76846FFF753FC019870
:1049F800EEE7364B1B6813F0200F08D0334B1B68CB
:104A0800C3F3C1033248D840E2E73248C0E7304830
:104A1800BEE7402B17D14FF40040626A2A4B33F8A7
:104A28001230B0FBF3F0636800EB5300B0FBF3F017
:104A3800A0F110024FF6EF739A4242D8236880B271
:104A4800D860002033E0012031E0FEF79FFC002809
:104A5800E3D100202BE0FEF7ABFCF8E703A8FFF753
:104A68001DFB0498F3E76846FFF714FC0198EEE78E
:104A7800164B1B6813F0200F08D0144B1B68C3F3A8
:104A8800C1031348D840E2E71248C6E71048C4E714
:104A980001200CE001200AE0012008E0012006E0E6
:104AA800012004E0012002E0012000E001200123B0
:104AB800A4F86A30A4F8683000236367A36706B0D7
:104AC80070BD0120F3E700BF707000080044025871
:104AD8000090D00300093D00836A13F0010F06D04F
:104AE8000268536823F40033C16A0B435360836A36
:104AF80013F0020F06D00268536823F48033016B69
:104B08000B435360836A13F0040F06D0026853689E
:104B180023F48023416B0B435360836A13F0080F1F
:104B280006D00268536823F40043816B0B4353603B
:104B3800836A13F0100F06D00268936823F4805339
:104B4800C16B0B439360836A13F0200F06D0026891
:104B5800936823F40053016C0B439360836A13F04A
:104B6800400F0AD00268536823F48013416C0B434A
:104B78005360436CB3F5801F0BD0836A13F0800F2A
:104B880006D00268536823F40023C16C0B435360BA
:104B980070470268536823F4C003816C0B43536069
:104BA800EBE72DE9F84305460F4616469946DDF82A
:104BB80020802C68E46937EA04030CBF4FF0010C2D
:104BC8004FF0000CB44532D1B8F1FF3FF1D0FBF7FC
:104BD800C3FEA0EB090040452CD8B8F1000F2BD03C
:104BE8002B681A6812F0040FE3D0DA6912F0080F84
:104BF80011D1DA6912F4006FDBD04FF400621A6247
:104C08002846FFF743FC2023C5F89030002385F899
:104C1800843003200CE008241C622846FFF736FC89
:104C2800C5F89040002385F88430012000E000207A
:104C3800BDE8F8830320FBE70320F9E730B583B02C
:104C480004460023C0F89030FBF786FE054622682C
:104C5800126812F0080F10D123681B6813F0040FB4
:104C680028D12023C4F88830C4F88C300020E066AE
:104C7800206784F8840003B030BD6FF07E43009352
:104C8800034600224FF400112046FFF78AFF002850
:104C9800E2D0226852E8003F23F0800342E8003166
:104CA8000029F6D12023C4F88830002384F8843002
:104CB8000320E0E76FF07E4300932B4600224FF479
:104CC80080012046FFF76DFF0028CAD0226852E80D
:104CD800003F23F4907342E800310029F6D122689E
:104CE80002F1080353E8003F23F00103083242E8C9
:104CF80000310029F3D12023C4F88C30002384F834
:104D080084300320B7E778B310B50446D0F888306C
:104D18000BB32423C4F888302268136823F00103F6
:104D280013602046FFF7DEFB012813D0A36ABBB946
:104D38002268536823F4904353602268936823F0F1
:104D48002A0393602268136843F001031360204626
:104D5800FFF774FF10BD80F88430FBF785FCD8E7B7
:104D68002046FFF7B9FEE3E701207047436E2BB9F1
:104D78000123A0F86A30A0F86830704730B403689F
:104D88009A68C2F342629968490F094D6B5C1B012E
:104D9800084C615C93FBF1F3A0F86A30AB5C1B0133
:104DA800A25C93FBF2F3A0F8683030BC704700BFF8
:104DB800907000088870000890F88430012B18D093
:104DC800012380F884302423C0F8883003681A68E7
:104DD800196821F00101196022F00052002343668E
:104DE80001680A602022C0F8882080F884301846BC
:104DF80070470220704738B590F88430012B1DD0D9
:104E08000446012380F884302423C0F888300368DE
:104E18001D681A6822F001021A600268936823F07C
:104E2800604319439160FFF7A1FF23681D602023A9
:104E3800C4F88830002084F8840038BD0220FCE7DC
:104E480038B590F88430012B1DD00446012380F832
:104E580084302423C0F8883003681D681A6822F05B
:104E680001021A600268936823F060631943916035
:104E7800FFF77CFF23681D602023C4F888300020DA
:104E880084F8840038BD0220FCE7000082B00023CB
:104E98000193019B01330193019A0F4B9A4215D854
:104EA8000369002BF5DA00230193036943F001033A
:104EB8000361019B01330193019A074B9A4208D879
:104EC800036913F0010FF4D1002000E0032002B0C1
:104ED80070470320FBE700BF400D030084B010B506
:104EE800044603A880E80E00089B012B1DD1A36B84
:104EF80023F48033A363E2681D4B1340E360E36847
:104F080023F44013E3600F9B012B09D02046FFF7E1
:104F1800BDFF059B012B1BD0BDE8104004B07047B6
:104F2800E36843F48013E360F0E7E36843F0400389
:104F3800E3602046FFF7AAFF0C9B23B9A36B43F459
:104F48008033A363E5E7A36B23F48033A363E0E72F
:104F5800E36D9BB2E365E26D064B1343E365A3681B
:104F680043F00603A360A36843F02003A360D3E7DC
:104F7800BFFFBDFF0000EE03022A0AD00921C26864
:104F880022F47052C260C36843EA8123C3600020E0
:104F98007047204B0B44204A934229D91F4B0B449E
:104FA8001F4A934226D91F4B0B441F4A934223D9C9
:104FB8001E4B0B441E4A934220D31E4B0B441E4AE1
:104FC80093421DD91D4B0B441D4A93421AD31D4BC6
:104FD8000B441D4A934217D31C4B0B441C4A934263
:104FE80014D31C4B0B441C4A934211D20721C6E729
:104FF8000F21C4E70E21C2E70D21C0E70C21BEE74F
:105008000B21BCE70A21BAE70921B8E70821B6E76E
:105018000621B4E7405327FFFF340C00401E1BFF56
:105028003F420F0000DC0BFF7F4F1200808CF9FE1F
:1050380020D6130060B6E5FE5FE3160000D3CEFE6F
:1050480040771B00C05BB3FEC091210000CA91FEEF
:1050580020753800E05459FEE09C4100836843F015
:105068000103836000207047836823F00103836095
:105078000020704782B000230193019B0133019304
:10508800019A0F4B9A4215D80369002BF5DA0023D1
:105098000193890141F020010161019B01330193D2
:1050A800019A074B9A4208D8036913F0200FF4D1EC
:1050B800002000E0032002B070470320FBE700BF98
:1050C800400D030082B000230193019B013301933B
:1050D800019A0E4B9A4213D80369002BF5DA002384
:1050E800019310230361019B01330193019A074B3C
:1050F8009A4208D8036913F0100FF4D1002000E099
:10510800032002B070470320FBE700BF400D0300F7
:10511800D0F800381943C0F8001800207047000084
:1051280084B02DE9F041044607A880E80E0000236A
:1051380006E003F1400204EB8202002151600133D2
:105148000E2BF6D9119F27BBD4F8043843F002037D
:10515800C4F80438A36B23F40013A363236843F053
:1051680040032360236843F0800323600023C4F8CE
:10517800003E04F50065D4F80038C4F800380C9BEC
:10518800012B10D10A9B4BB900212046FFF7C0FF25
:105198000DE0A36B43F40013A363E7E70121204666
:1051A800FFF7B6FF03E003212046FFF7B1FF102108
:1051B8002046FFF75FFF804608B14FF00108204600
:1051C800FFF780FF08B14FF0010800232B616B61E6
:1051D800EB610AE0C3B94FF00060C2F80009002291
:1051E8000A614FF67F328A6001330799994210D9D4
:1051F80004EB431202F51061D2F800090028E9DB3C
:105208000020C2F80009EAE74FF09040C2F8000910
:10521800E5E700230AE0C3B14FF0904CC2F800CB99
:10522800002202614FF67F3282600133994211D920
:1052380004EB431202F53060D2F8006B002EEADB73
:105248004FF0000CC2F800CBEAE74FF0006CC2F850
:1052580000CBE5E72B6923F480732B610023A3615E
:105268006FF080436361099B1BB9A36943F0100386
:10527800A361A2690A4B1343A3610D9B1BB1A369E8
:1052880043F00803A361012F04D04046BDE8F04174
:1052980004B07047A269034B1343A361F5E700BF4D
:1052A80000383C8004000040D0F8083813F00603AA
:1052B80005D0062B18BF022B03D10220704700200F
:1052C80070470F207047000010B591F800C04B7868
:1052D800012B21D000F5006ED0F81C380CF00F041B
:1052E8000122A24043EA0243C0F81C3800EB4C10EC
:1052F800D0F8003B13F4004F0CD1D0F8002B8B688A
:10530800C3F30A03097943EA81431343144A1A434E
:10531800C0F8002B002010BDD0F81C280CF00F0E90
:1053280003FA0EF39BB21343C0F81C3800EB4C1081
:10533800D0F8003913F4004FECD1D0F800298B686D
:10534800C3F30A03097943EA814343EA8C5C42EADE
:105358000C0C034B4CEA0303C0F80039DAE700BF32
:105368000080001030B40B784A78012A26D000EB70
:105378004313D3F8002B002A52DBD0F83C480A78B4
:1053880002F00F024FF0010C0CFA02F224EA02427A
:10539800C0F83C28D0F81C28097801F00F010CFA55
:1053A80001FC22EA0C42C0F81C28D3F8001B234A4F
:1053B8000A40C3F8002B002030BC704700EB4313B1
:1053C800D3F80029002A1EDBD0F83C580A7802F0EE
:1053D8000F02012404FA02F292B225EA0202C0F88E
:1053E8003C28D0F81C28097801F00F018C40A4B2A1
:1053F80022EA0404C0F81C48D3F80019104A0A40ED
:10540800C3F80029D7E7D3F8002942F00062C3F8AF
:105418000029D3F8002942F08042C3F80029D3E7D5
:10542800D3F8002B42F00062C3F8002BD3F8002B0E
:1054380042F08042C3F8002B9FE700BF0078F3EFEB
:10544800007833EC10B483B0024600230193487807
:1054580001280BD00B7802EB4313D3F8000B00287C
:105468002DDB002003B05DF8044B70470B7802EB8E
:105478004313D3F80049002C01DB0020F2E7D3F8EE
:10548800004944F00064C3F800490B7802EB431369
:10549800D3F8004944F08044C3F80049019B013324
:1054A8000193019C42F210739C42DBD80B7802EB0B
:1054B8004313D3F80039002BF0DB0020D2E7D3F8F0
:1054C800000B40F00060C3F8000B0B7802EB4313AD
:1054D800D3F8000B40F08040C3F8000B019B013368
:1054E8000193019842F21073984208D80B7802EBA6
:1054F8004313D3F8003B002BF0DB0020B2E7012078
:10550800B0E710B59DF8084084B903334FEA930E0D
:105518004FF0000C08E000EB023303F5805351F81C
:10552800044B1C600CF1010CF445F4D3002010BDB1
:10553800F0B583B00C784B78012B2DD000EB441CD0
:105548000CF530631E69864D35401D611E69854D19
:1055580035401D61002C40F0C7800C690CB18C6887
:105568000C618C680C621D69C4F312042C431C6125
:105578001C6944F400241C61012A00F0D8800B79CE
:10558800012B00F0DA80DCF8003B43F00443CCF850
:10559800003B002003B0F0BD0B6973BB00EB441364
:1055A800D3F810696F4D3540C3F81059D3F8105926
:1055B80045F40025C3F81059D3F81069684D3540F3
:1055C800C3F81059012A4DD000EB4414D4F800391F
:1055D80043F00443C4F800390B79012B6BD00B69F5
:1055E800002BD6D0D0F834380A7802F00F01012207
:1055F8008A401343C0F83438CBE700EB441303F573
:1056080010631E69564D35401D611E69554D354064
:105618001D61D4B90E698D68AE4200D90D611D694E
:1056280045F400251D611D690E69C6F31206354350
:105638001D610D79012DC5D11D6925F0C0451D617C
:105648001D6945F000551D61BCE71E690D698F682D
:105658003D44013DB5FBF7F5434F07EAC5453543E2
:105668001D61E0E7CB691BB100EB4412C2F81439A5
:105678000B79012B08D000EB4410D0F8003943F027
:105688000443C0F8003984E7D0F8083813F4807F61
:1056980008D100EB4412D2F8003943F00053C2F8A5
:1056A8000039E8E700EB4412D2F8003943F08053A0
:1056B800C2F80039DFE7D0F8083813F4807F0CD13E
:1056C800D4F8003943F00053C4F8003900920B8A2B
:1056D8000A78C968FFF715FF5BE7D4F8003943F08B
:1056E8008053C4F80039F1E70C6954B91C698D6816
:1056F800C5F312052C431C611C6944F400241C6189
:105708003AE78D682C44013CB4FBF5F4A4B204FBE1
:1057180005F50D621D69144E06EAC4442C431C614C
:105728001C690D6AC5F312052C431C6124E7CA687D
:10573800002A3FF424AF5A6121E7D0F8083813F45F
:10574800807F06D1DCF8003B43F00053CCF8003BE7
:1057580019E7DCF8003B43F08053CCF8003B12E734
:105768000000F8FFFFFF07E00000F81F00B583B056
:10577800844608464FEA920E02F00302002305E031
:105788000CF58051096840F8041B01337345F7D3C1
:105798009AB10CF5805CDCF8003001934FF0000CF6
:1057A8005FFA8CF3D900019BCB4000F8013B0CF168
:1057B800010C013A92B2002AF2D103B05DF804FB61
:1057C8000B784A78012A14D000EB4310D0F8002B4C
:1057D800002A06DB2BB1D0F8003B23F08043C0F849
:1057E800003BD0F8003B43F40013C0F8003B002016
:1057F800704700EB4310D0F80029002A06DB2BB1D4
:10580800D0F8003923F08043C0F80039D0F80039C7
:1058180043F40013C0F80039E9E70B784A78012A05
:105828000ED000EB4310D0F8003B23F40013C0F86F
:10583800003B0B79023BDBB2012B15D900207047E6
:1058480000EB4310D0F8003923F40013C0F80039F6
:105858000B79023BDBB2012BF0D8D0F8003943F0CA
:105868008053C0F80039E9E7D0F8003B43F0805393
:10587800C0F8003BE2E7D0F8003823F4FE63C0F834
:105888000038D0F80038090101F4FE611943C0F866
:10589800001800207047D0F8003E23F00303C0F83A
:1058A800003ED0F8043823F00203C0F80438002082
:1058B8007047D0F8003E23F00303C0F8003ED0F84C
:1058C800043843F00203C0F80438002070474269E6
:1058D800806910407047D0F8183800F50060C0693A
:1058E8001840000C7047D0F8183800F50060C069FF
:1058F800184080B2704700EB4111D1F8082B00F531
:10590800006040691040704710B4D0F81048D0F8D3
:10591800343801F00F02D340DB01DBB2234300EB44
:10592800411000F51060806818405DF8044B70471E
:10593800406900F00100704738B50546C36823F098
:10594800C043C360012913D019BBC36843F0804327
:10595800C36000240120FBF705F801342846FFF74F
:10596800E7FF08B1312CF5D9322C14D0002038BD0E
:10597800C36843F00053C36000240120FAF7F2FF24
:1059880001342846FFF7D4FF0128EDD0312CF4D993
:10599800EAE70120EBE70120E9E70000D0F8002959
:1059A800054B1340C0F80039D0F8043843F480732D
:1059B800C0F804380020704700F8FFFF10B4046CEA
:1059C800154B9C4203D9D0F8003B002B16DB002472
:1059D800C0F8104BD0F8104B44F40024C0F8104B1A
:1059E800D0F8104B44F01804C0F8104BD0F8104B06
:1059F80044F0C044C0F8104B012903D000205DF8E2
:105A0800044B7047C0F8142BD0F8003B43F08023B8
:105A1800C0F8003BF2E700BF0A30544FD0F8D43248
:105A2800B03350F823300020187370470A230380DE
:105A380000487047C400002410B504468121054879
:105A480000F010FB08B10A2282712223238001484A
:105A580010BD00BF9400002410B5044681210548FC
:105A680000F000FB08B10A2282712223238001483A
:105A780010BD00BF9400002410B5044681210548DC
:105A880000F0F0FA08B1072282712223238001482E
:105A980010BD00BF9400002430B583B0D0F8D432D4
:105AA800B03350F823300022ADF80620002B00F068
:105AB80082800C7814F0600425D0202C75D14A78A7
:105AC800023A092A1BD8DFE802F014091A1A1A1A2E
